:020000040000FA
:1000000068F1FF1F6501000071010000730100002D
:1000100000000000000000000000000000000000E0
:10002000000000000000000000000000750100005A
:1000300000000000000000007701000079010000CE
:100040007B0100007B0100007B0100007B010000C0
:100050007B0100007B0100007B0100007B010000B0
:100060007B0100007B0100007B0100007B010000A0
:100070007B0100007B0100007B0100007B01000090
:100080007B0100007B0100007B0100007B01000080
:100090007B0100007B0100007B0100007B01000070
:1000A0007B0100007B0100007B0100007B01000060
:1000B0007B0100007B0100007B0100007B01000050
:1000C00000F002F800F03EF80CA030C80838241800
:1000D0002D18A246671EAB4654465D46AC4201D180
:1000E00000F030F87E460F3E0FCCB6460126334274
:1000F00000D0FB1AA246AB4633431847BC0B0000A6
:10010000DC0B0000103A02D378C878C1FAD8520745
:1001100001D330C830C101D504680C6070470000BD
:100120000023002400250026103A01D378C1FBD813
:10013000520700D330C100D50B6070471FB51FBDFB
:1001400010B510BD00F0E2F81146FFF7F7FF00F020
:10015000FDF900F0FAF803B4FFF7F2FF03BC00F07A
:10016000FDF8000072B60948804762B608480047AB
:10017000FEE7FEE7FEE7FEE7FEE706480047000071
:1001800005480649044A064B704700006D0300000D
:10019000C10000007B01000068F0FF1F68F1FF1F35
:1001A00068F0FF1F002203098B422CD3030A8B4205
:1001B00011D300239C464EE003460B433CD400225F
:1001C00043088B4231D303098B421CD3030A8B4271
:1001D00001D394463FE0C3098B4201D3CB01C01A3F
:1001E000524183098B4201D38B01C01A524143090A
:1001F0008B4201D34B01C01A524103098B4201D3F8
:100200000B01C01A5241C3088B4201D3CB00C01A64
:10021000524183088B4201D38B00C01A52414308DC
:100220008B4201D34B00C01A5241411A00D2014601
:100230005241104670475DE0CA0F00D0494203109A
:1002400000D34042534000229C4603098B422DD3E9
:10025000030A8B4212D3FC22890112BA030A8B4291
:100260000CD3890192118B4208D3890192118B42E0
:1002700004D389013AD0921100E08909C3098B4265
:1002800001D3CB01C01A524183098B4201D38B01A8
:10029000C01A524143098B4201D34B01C01A52414B
:1002A00003098B4201D30B01C01A5241C3088B4290
:1002B00001D3CB00C01A524183088B4201D38B007B
:1002C000C01A5241D9D243088B4201D34B00C01A05
:1002D0005241411A00D20146634652415B1010461A
:1002E00001D34042002B00D54942704763465B1062
:1002F00000D3404201B50020C046C04602BD704751
:10030000704770470048704704F0FF1F7546FFF7BD
:10031000F9FFAE46050069465346C008C000854651
:1003200018B020B5FFF72CFF60BC00274908B6467F
:100330000026C0C5C0C5C0C5C0C5C0C5C0C5C0C5F4
:10034000C0C5403D49008D46704710B50446C046C3
:10035000C0462046FFF7FFFE10BD000001491820EF
:10036000ABBEFEE7260002007047000000200149F6
:10037000086070470081044030B47446641E2578DC
:10038000641CAB4204D3635D5B00E31830BC1847C8
:100390001D46F8E710B500F001F810BD10B5024891
:1003A00000F004F810BD0000006006400A49496BE7
:1003B00040221143084A51631146896BD2141143FC
:1003C000054A91635115054A116251621421417029
:1003D00080218170704700000080044000B004401C
:1003E0000146C878C007C00F002801D1012070471E
:1003F0000020FCE7817808221143817070470000DB
:10040000FFFFFFFFFFFFFFFFFFFFFFFFFEFFFFFFFD
:1004100070B504461D4800F057F8D0211B4800F085
:100420006FF81A4800F062F81848FFF7D9FF214624
:10043000164800F065F8154800F058F81348FFF723
:10044000CFFF124800F027F8D121104800F058F8EB
:100450000E4800F04BF80D48FFF7C2FF0B4800F0C4
:1004600024F80A48FFF7C6FF084800F011F80546CF
:10047000064800F03BF8054800F02FF8034800F06C
:1004800007F8054600F0E4F8284670BD0060064015
:1004900001460879704781780422114381707047C2
:1004A0008178202211438170704781781022914316
:1004B00081707047817820229143817070478178E4
:1004C000102211438170704700B503461846FFF7AC
:1004D000E7FF1846FFF7F3FF00BD00B503461846D7
:1004E000FFF7E8FF1846FFF7E0FF00BD00BFC17847
:1004F000022211400029FAD0C1781143C17070471F
:1005000001717047FFB583B004460E461D460C9F2F
:100510002670656027810D98E0600E982074012098
:1005200007210346084A009101900146059800F012
:10053000DFF90E9800902822394628460D9B00F0DE
:100540008DF807B0F0BD0000FF0F000096B000204E
:100550002E4900902E4B1A4601910290014610A898
:10056000FFF7D0FF012029490090294B1A4601913D
:10057000029000210AA8FFF7C5FF1E202349C031C1
:100580000322244B0092019102901A46012104A8F3
:10059000FFF7B8FF10A800F0FFF90AA800F0FCF977
:1005A00004A800F0F9F90A2000F00CFAE122520246
:1005B0000321194800F02CFAFFF7ECFE052000F0AB
:1005C00001FA00BF15A1144800F068FB1DE018A156
:1005D000114800F063FB75210F4800F057FB17A18D
:1005E0000D4800F05BFB16A10B4800F057FB4720BD
:1005F000FFF70EFF044600BF2146074800F046FB08
:100600000EA1054800F04AFB00BFE0E740F00F40B4
:10061000009003400080034000A0064048656C6CD9
:100620006F2066726F6D204B4C32355A200D0A00D8
:1006300052656164696E6720726567200A0D00006B
:100640004D79206E616D652069733A200A0D0000B6
:10065000002000E0401C2828FCDB7047F0B5054670
:10066000059C9448854278D19348834219D1022948
:1006700001DD052913D1032C01DA052C0DDC8F488F
:10068000806B0126760230438C4EB063032000025B
:10069000A6008B4FF619306000E10020F0BD00206D
:1006A000FCE78548803083421BD1052917DC012CEB
:1006B00005DA042C03DD082C01D0092C0DD17F486C
:1006C000806B0126F60230437C4EB06303200002AB
:1006D000A6007C4FF6193060E0E00020DEE7002045
:1006E000DCE77548C030834215D1052911DC052CA3
:1006F0000DDC7248806B0126360330436F4EB063C9
:1007000003200002A600704FF6193060C6E00020FA
:10071000C4E70020C2E76D4883421CD1042918DCDD
:10072000182C05DA192C03DD1D2C01DA1F2C0EDC28
:100730006248806B012676033043604EB06303202D
:100740000002A600624FF6193060A7E005E0002025
:10075000A4E70020A2E70020A0E75E48854248D138
:10076000012944DC5448834213D10C2C01DA0D2CAE
:100770000DDC5248806B0126760230434F4EB06349
:1007800003200002A6004E4FF619306086E00020DC
:1007900084E749484030834210D1012C0CDC4748A3
:1007A000806B1E153043454EB06303200002A60047
:1007B000494FF619306071E000206FE743488342EB
:1007C00013D1142C01DA152C0DDC3C48806B01266A
:1007D00076033043394EB06303200002A6003C4F3D
:1007E000F61930605AE0002058E7002056E7002054
:1007F00054E73A4885424FD101294BDC2E488342C9
:1008000013D1012C01DA022C0DDC2C48806B01265F
:1008100076023043294EB06303200002A600284F21
:10082000F61930603AE0002038E723484030834230
:1008300017D1022C05DA032C03DD122C01DA132C5C
:100840000DDA1E48806B0126B60230431B4EB063A2
:1008500003200002A600204FF61930601EE00020A1
:100860001CE71A48834213D1162C01DA172C0DDC31
:100870001248806B012676033043104EB06303208C
:100880000002A600124FF619306007E0002005E7CD
:10089000002003E7002001E70020FFE6CE00284605
:1008A0000C3080591043CE002F460C37B851012030
:1008B000F4E600000080034000F00F400080044098
:1008C0000090044000B0044000C0044000F10F401C
:1008D00000D004400090034000A0044000A003406A
:1008E00010B5CC0003460C33E3185A6010BD00006D
:1008F000F0B50446069D2448844207D12348C06BC6
:10090000012636063043214EF06317E0204884422A
:1009100007D11E48C06B0126760630431B4EF0639C
:100920000CE01C48844207D11848C06B0126B6066B
:100930003043164EF06301E00020F0BD13484068DC
:100940000E0603273F063E403043104E7060A26003
:10095000D80018263040059E7607760F304326686B
:1009600030432060012D04D12068202630432060D0
:1009700008E0002D04D120682026B043206001E06B
:100980000020DAE70120D8E700800340008004401F
:100990000090034000A0034010B5044620780028D2
:1009A00005D12189FA226068FFF79AFF07E02078D5
:1009B000012804D12189E6226068FFF791FF002019
:1009C000A08210BD1049896B012211430E4A916328
:1009D00000210E4A116011468860052151601146C0
:1009E000096801221143094A116000BF07490968DB
:1009F000802211400029F9D00449096849084900BA
:100A0000024A11607047000000800440000004406A
:100A1000FEB504460F4616469248844269D1924874
:100A2000406B2115084390494863084640680321FC
:100A3000890688438C494860084640680121890638
:100A4000084389494860314688480068FFF7AAFB97
:100A500080B20090C017010F0098081805113B00E4
:100A6000FFF78AFC0504101D2A3744007E48806B7E
:100A70000121490208437C49886348157C49486044
:100A8000886035E07848806B012149020843764947
:100A900088630D20800176498863C86328E0724826
:100AA000806B0121890208436F498863032000029B
:100AB0007049086048601BE06B48806B01210903A6
:100AC0000843694988630D2080016B498861C861CA
:100AD0000EE06548806B0121490308436249886341
:100AE0000320000265498861C86101E00020FEBD65
:100AF000A0E0634884424BD15B48406BE11408435B
:100B000059494863E1204002864209D157490968A2
:100B1000C8093146FFF746FB4221484385B205E04C
:100B2000710152480068FFF73DFB85B2002F04D0E9
:100B3000012F10D0022F28D11AE04B48806B0121E1
:100B4000490208434849886303200002484940316C
:100B50008860C8601BE04448806B0121C9020843DB
:100B600041498863032000024649C86008610EE0DD
:100B70003D48806B0121490308433B4988630320BA
:100B800000023E490860486001E00020AFE751E004
:100B90003D4884424CD13448406B0121090308434D
:100BA00031494863E1204002864209D12F49096852
:100BB000C8093146FFF7F6FA4221484385B205E0FD
:100BC00071012A480068FFF7EDFA85B2002F04D0C2
:100BD000012F0FD0022F28D119E02348806B01216B
:100BE00009030843204988630320000222498860E2
:100BF000C8601CE01C48806B0121090308431A49A6
:100C00008863032000021C49086148610FE0164810
:100C1000806B0121490308431349886303200002C4
:100C2000164940318861C86101E000205FE701E0BA
:100C300000205CE7E0780C218843E0700020A07081
:100C400020784109490101911F200002284000122B
:100C50000199084320706570E0780C210843E0702A
:100C6000012044E700A006400080044000F0FF1F80
:100C70000090044040A0044000C0044000D0044064
:100C800000B0064000B0044000C0064000BF02793A
:100C900080231A40802AFAD1C171704730B50546C9
:100CA0000C4604E021782846FFF7F0FF641C20780A
:100CB0000028F7D130BD0000D80C000000F0FF1F65
:100CC0000400000004010000DC0C000004F0FF1F21
:0C0CD00064010000200100000000400151
:040000050000016591
:00000001FF
