:020000040000FA
:1000000078F1FF1F49010000550100005701000071
:1000100000000000000000000000000000000000E0
:100020000000000000000000000000005901000076
:1000300000000000000000005B0100005D01000006
:100040005F0100005F0100005F0100005F01000030
:100050005F0100005F0100005F0100005F01000020
:100060005F0100005F0100005F0100005F01000010
:100070005F0100005F0100005F0100005F01000000
:100080005F0100005F0100005F0100005F010000F0
:100090005F0100005F0100005F0100005F010000E0
:1000A0005F0100005F0100005F0100005F010000D0
:1000B0005F0100005F0100005F0100005F010000C0
:1000C00000F002F800F030F80CA030C8083824180E
:1000D0002D18A246671EAB4654465D46AC4201D180
:1000E00000F022F87E460F3E0FCCB6460126334282
:1000F00000D0FB1AA246AB46334318474C1E000003
:100100005C1E00000023002400250026103A01D3C5
:1001100078C1FBD8520700D330C100D50B607047BF
:100120001FB51FBD10B510BD00F0FCF81146FFF75C
:10013000F7FF01F0BFFB00F014F903B4FFF7F2FF83
:1001400003BC00F017F9000072B60948804762B698
:1001500008480047FEE7FEE7FEE7FEE7FEE7064841
:100160000047000005480649044A064B7047000056
:1001700085030000C10000005F01000078F0FF1F50
:1001800078F1FF1F78F0FF1F70477047704700003D
:1001900030B50346CA02400D1043164D164C0A15E1
:1001A00002D02043002A06DBAA1A002A12DDD04022
:1001B000FF2A0BDC30BD5205520D01D14000400832
:1001C000AA1A07D4D0404042FF2A01DD002030BDEA
:1001D0000028FCDD4A00002B01D0012000E00020B7
:1001E000101801225205D042F0D8C817C043604011
:1001F00030BD00001E040000000000800346CA025B
:10020000400D10B510430A1504D00124E407204323
:10021000002A05DB0A4CA21A04D4D040FF2A00DDD4
:10022000002010BD4A00002B01D0012000E000207A
:10023000101801225205D042F2D8C817C04310BD91
:100240001E0400001F22030C02D10F22000402D062
:10025000030E03D004E00020014670470002083A74
:10026000030F01D10001121F830F01D18000921EE4
:10027000002801DB4000521E120551184205C01231
:10028000411810467047C10FC90700D040420122F3
:1002900092071143D6E701218907D3E710B500F093
:1002A00039F8006810BD10B5044600F033F804605A
:1002B00010BD000070B505464800440D124B0020EB
:1002C000002C0AD0634008D09A4206DA6642B24255
:1002D00003DD12054019514170BD002C08D0002BE0
:1002E00009D0C90FC907002AF6DB084A114370BDBF
:1002F000C90FC90770BD28460A03104302D0002069
:10030000034970BD284670BDFF0700000000F07F64
:100310000000F87F0048704718F0FF1F0048704742
:1003200018F0FF1F7546FFF7F9FFAE460500694656
:100330005346C008C000854618B020B5FFF712FF2D
:1003400060BC00274908B6460026C0C5C0C5C0C568
:10035000C0C5C0C5C0C5C0C5C0C5403D49008D466B
:10036000704710B50446C046C0462046FFF7E5FE7C
:1003700010BD000001491820ABBEFEE726000200B8
:100380007047000000200149086070470081044068
:10039000FEB53B2001F0C8F904463C2001F0C4F949
:1003A00007462402E019FFF76EFF05460022054BC1
:1003B00000F0FEFB044A054B0191009000F0F8FBB1
:1003C00003B0F0BD0000203F1F85EB51B89E2340D5
:1003D0004900CA020243100000D004204A0D01D097
:1003E00001221043044A490D914201D102210843E0
:1003F000012800D105207047FF07000001717047F8
:10040000FFFFFFFFFFFFFFFFFFFFFFFFFEFFFFFFFD
:10041000F0B50C46871A9C410D46861A9D4103D2C1
:10042000C01BA141D21963410D0D1F0DC94EEC1B1C
:10043000AE435CD07F057F0D0026002F51D02D05E7
:10044000AC46A943DD020123ED0A1B051D43202311
:100450001B1B24D41746E740381871412F46E7404C
:10046000CC199D402818314661410C0D27D16144BB
:100470009A4013D50023401C594152000ED1400828
:10048000400001224B005205D34207D3052040070C
:10049000C14201D5B04900E0B0493046F0BD6B0023
:1004A000002A00D001229A181F23203C1B1B01D5D3
:1004B000002302E0E540281871410C0DD7D001243B
:1004C00024050919C407CD0740084908E40F28434B
:1004D0006144002CD5D00024401C61419A40D0D109
:1004E000CDE76A05520DD9D1C90FC907D5E79C4D93
:1004F0004E00002801D0012400E0002434195F00E0
:10050000002A01D0012600E00026BE19954FAC421A
:100510000CD8AE420AD8B44206D001256D05EC4293
:10052000BCD010461946F0BD9942FCD00020394697
:10053000F0BDF0B51FB40C460F46811A9F41254609
:10054000861A9D4106D20125ED076F40401ABC4135
:1005500052187B41210D1E0D8D1BAC467D4D8D43E8
:100560007ED075056D0D7CD00D05AE46AC431B03EA
:100570001B0B794D52429D41202366469B1B14D391
:100580001746F740381800260090744160462F4601
:100590000741E41900989D402818664116D4714619
:1005A00071189A4025D5012320E093182A466A4104
:1005B0005200002B00D0521C1E23203E9B1B002B00
:1005C00061DD3541EE1728186641E8D500187641FF
:1005D0005B1C9A4000D3401C4B05F3181524E340E4
:1005E00010D3002B52D071467118D30FC01802D30C
:1005F000491C05B0F0BD0123DB079A42F9D1400840
:100600004000F6E701225205B21801D1002853D06C
:100610000123CC0ADB029943891E002A08D1020C6F
:1006200003D0020C0004103902E0024600202039F9
:100630000023550B05D112020823550B01D152019D
:100640000D23550C01D112011B1DD50C01D19200B7
:100650009B1C150D01D152005B1C2025EE1A01E0F8
:100660002CE022E00546F54015439840CA1AE10700
:1006700069181305C918002ABBDA032040070818B7
:10068000C10FC9070FE071466118B2E7F1074008D2
:100690000843711071444A000CD001235B059A4253
:1006A000A7D2C90FC9070020A3E74905490D26D1E4
:1006B000002001E00028F4D100219AE7284D6600CF
:1006C000002801D0012100E0002171185F00002AFC
:1006D00001D0012600E00026BE19224FA94210D801
:1006E000AE420ED8B14208D001256D05E94206D0D0
:1006F0001946A802414010467BE79C4201D02146A2
:1007000077E70020394674E710B50C465C4005D504
:100710000124E4076340FFF70CFF10BDFFF778FEEC
:1007200010BD30B40C465C4004D50124E40763409E
:1007300030BC6DE630BCFCE670B50124E4076140D6
:100740000D465D4002D4FFF763FE70BD6340FFF7C6
:10075000F0FE70BDFF0700000000F0FF0000F07F1A
:100760000000E0FF0000F87FF0B5F94D0C091E090C
:100770002C402E402F468BB0A7437DD0B543FCD0F4
:10078000002E7AD0002CFCD00D465D40ED0F2543A5
:10079000AC1BFF25AD0464190894C502440DC902C1
:1007A0002143500DDC0204430120C00701430443F0
:1007B000D2020191200C110C00958C4601042346B5
:1007C0008B430A9161460904E24D8A430991010A6B
:1007D0007D4449198039097805464D4301266D1835
:1007E000F605751B6943C90C640B891C4C436418DE
:1007F000B5012C1B250C2E04B4434C434D43210C56
:10080000691889090591009DE90701D00121C907EF
:1008100004912C4601996708CD072F434C08059D8C
:10082000E10B4D432D0C29466646754302950D4656
:1008300045432E46029D7D1BB44100950D465D4308
:1008400001942C0C2F040D465543AE462D0C3D4310
:10085000029503947546049C2D04641B049406D2EF
:10086000029C039D641C002675410395029401AC13
:1008700070CC009F7D1B01E03EE162E1B4410904C0
:100880000095079101940599A4086143090C0C4651
:100890004443650BE7040C4666467443A646640B66
:1008A0003C43039502947446049DE4042C1B049479
:1008B00006D2029C039D641C002675410395029498
:1008C00001AC70CC009F7D1BB44101940C465C438D
:1008D0000095650FE7000C465443A646640F3C4361
:1008E000039502947446049DE4002C1B049406D2E4
:1008F000029C039D641C002675410395029401AC83
:1009000070CC009F7D1BB441AE09AF06049DC900A9
:10091000AD092F43049DA406AD060495079D3443FD
:1009200069180791059DE10B4D432D0C294666463C
:10093000754302950D4645432E46029D7D1BB441ED
:1009400000950D465D4301942C0C2F040D46554334
:10095000AE462D0C3D43029503947546049C2D0430
:10096000641B049406D2029C039D641C00267541FE
:100970000395029401AC70CC009F7D1BB44101949F
:100980008C050694079C890A611800950791019CC3
:100990000599A4086143090C0D464543680BEF0413
:1009A0000D46644665436C0B3C43049FED047D1B80
:1009B000AC4602D20025641C6841009E019D371B95
:1009C00085410846584301950C46460FC5005443DF
:1009D000600F28436546E4002C1B02D20025401C12
:1009E0006E41019D3F1AB5412846BD098006284346
:1009F0008446A009BF064E020699A406761807434E
:100A0000079D002068410A99079019430020099B1F
:100A100000906046FF1913434041E20F64003A43DF
:100A2000A4460446D71A8C41A04203D90120009065
:100A300020463A46C70F941840416246D20F2243DF
:100A4000644664000494009CBE466400D71AA44621
:100A5000044602978C417746002F01D1A04204D969
:100A60006046401C8446029A2046C40FA64694184D
:100A70004041049A0546D20F224364466400D31ACB
:100A80008D417146002901D1A84202D928461A4653
:100A9000641C10430122002800D01643610200208C
:100AA000079B891904465C410223002C02DB49188C
:100AB00013466441089DCE0A2D145D194B05670548
:100AC000E10A2C050D1908993E43C9076940002B1E
:100AD00008D0934006D30022761C5141002B01D14F
:100AE000760876001C4A002D43DB154241D0AA430C
:100AF0003FD030460BB0F0BD06180D464D41174CA7
:100B00007642AC411AD395181C465C41134A6D429B
:100B1000A24113D3012252054C00D4420AD15C00F9
:100B2000D4420BD04B4002D592021143E2E7490078
:100B30004908DFE75940C90FC90718E000200849F4
:100B4000D8E7054801420DD10342F7D0F2E7000093
:100B50000000FF07501600000000F07F0000E0FFDB
:100B60000000F87F114859400143C0124140002065
:100B7000C0E70123089A9B069A4205DC032252072C
:100B80008918C90FC907B5E7052252078918074A0E
:100B90001143D2125140ADE770B515461C460246CE
:100BA0000B4628462146FFF7DFFD70BDFFFFFF7FA4
:100BB000F0B58B4C0F09254689B0BD437BD01D098C
:100BC0002646AE43FAD00E465E402740F60F3E431F
:100BD000254071D024012142FBD0FF24AD19A4048B
:100BE0002D1B039501252D05DB02DB0AC9022B43D2
:100BF000C90A29431E010901040F130F05012143EE
:100C00001701880B820391432D098C46A90B1E43C3
:100C10008A039543B30B9A0396433F09BA0B940397
:100C2000A74302962E467E430497B6464E19D7191F
:100C30000C460196544305977E43371B7646BF1BEF
:100C40003601B646BE0B361900967646BC043719F7
:100C5000009C01D3641C00946400002F01D0012685
:100C60003443029E049F754366467E430496760095
:100C700034196E0034190094029C019E1C196643BD
:100C8000751BAE46069465464519059C05956C4353
:100C9000594375460891691A0191049E01465143D2
:100CA000A41B0491611A009C0791E10605D061091B
:100CB0000122114302E072E06EE06109089D002705
:100CC0002C0A2D066918049D7C412A0A2D066918F4
:100CD000019D6241AC0DAD026D185441079A910D12
:100CE000920255196141029A644658435443069B47
:100CF000059A5A43121A131B9A0E9B015B187A41EC
:100D0000010B0005C3185141220A200644195A411B
:100D10009A4200D2491C01204002814203D315238C
:100D20000226F64302E014230326F6432020C51AC8
:100D3000A9401746AF40DA400A4320460399D840FD
:100D40000914731819055118039A3843D2075140F2
:100D5000AC4009D00122944006D30022401C5141EE
:100D6000002C01D1400840001E4A934212D30122B8
:100D700003989206904207DB0520400709181A489D
:100D80000143C012414004E0032040070818C10F8E
:100D9000C907002009B0F0BD0020F107FAE70518E7
:100DA0000C464C4111486D42A04115D394181A4687
:100DB0005A410E48644290410ED301204A0040053A
:100DC000824209D35A00824206D35940C90F084AC9
:100DD000C90700201143DDE700200649DAE70000DB
:100DE0000000FF07FE070000FFFFFF7F0000E0FF9D
:100DF0000000F07F0000F87FF0B53D4B02460C4646
:100E00001C400020002C63D03A4D8B4366D0002953
:100E10006BDB0B0D1D05A94301252D05294301247D
:100E2000FD33E34001D392184941FF3381339C469F
:100E30008B02940D0121234389074C429202002723
:100E40001B198C105D1A04D42D1B02D42B4665008F
:100E5000491992185B416408F4D15C1A08D4012541
:100E6000ED07EE175519744102D42A462346491C52
:100E700094185B41012292071D46E61B8D4106D462
:100E8000B61A854103D42B46550034467F192419E0
:100E90005B415208802AEFD1234300D00223384619
:100EA0000A22D04001D3012213438A05104362462F
:100EB000890A12058918002B09D00122D34002D3D8
:100EC0000022401C5141002B01D140084000F0BDE0
:100ED0000B03134307D0C90FC907F0BD0803104324
:100EE00003D1002901DB1046F0BD00202946F0BDEA
:100EF0000000F07F0000F87FC0B5A9B000F016F93F
:100F00002391229000F05CF92591249000F0A2F941
:100F100027912690FFF73CFA1D911C9000F030F9C4
:100F20001F911E9000F076F921912090219A20992E
:100F30000E461746059204910A4630463946059BEF
:100F4000FFF736FE099108901F9A1E990E46174624
:100F5000019200910A4630463946019BFFF728FE70
:100F6000059104901D9A1C990E4617460192009116
:100F70000A4630463946019BFFF71AFE039102905C
:100F8000059B049AFFF7C0FB07910690099B089AFE
:100F9000FFF7BAFB0B910A9000F0FAFE0F910E904A
:100FA000279A26990E461746059204910A4630461E
:100FB0003946059BFFF7FCFD09910890259F249E6B
:100FC00032463B463046394601970096FFF7F0FD22
:100FD00005910490239F229E32463B463046394677
:100FE00001970096FFF7E4FD03910290059B049A98
:100FF000FFF78AFB07910690099B089AFFF784FB8D
:101000000B910A9000F0C4FE0D910C90002611E0A7
:10101000F0001CA9081806C80B920A9108460F9BFD
:101020000E9A0B99FFF7A0FBF20016AB9A1803C2B9
:10103000701CC6B2032EEBDB002610E0F10022A8E4
:10104000401806C80B920A9108460BA90EC9FFF773
:101050008BFBF20010AB9A1803C2701CC6B2032EB1
:10106000ECDB22462B4600202E49FFF74DFB0B916F
:101070000A9022462B46109E30461199FFF798FDA4
:1010800007910690169E3246179BFFF73DFB09918C
:1010900008900B9B0A9AFFF767FB234A03C222467C
:1010A0002B4600201F49FFF72FFB0B910A90224689
:1010B0002B46129E30461399FFF77AFD0791069052
:1010C000189E3246199BFFF71FFB099108900B9B56
:1010D0000A9AFFF749FB144AD160906022462B46DA
:1010E00000201049FFF710FB0B910A9022462B4677
:1010F000149E30461599FFF75BFD079106901A9EE6
:1011000032461B9BFFF700FB0246089209910B9B9E
:101110000A9A0898FFF728FB034A5161106129B029
:10112000C0BD00000000F03F00F0FF1FF0B585B02B
:10113000432000F0F9FA0446442000F0F5FA07468F
:101140002402E019FFF79FF805460022084BFFF73D
:101150002FFD084A084B01910090FFF729FD00225E
:10116000064B03910290FFF723FD05B0F0BD000090
:101170000040AF3F399D52A246DF913F0000394009
:10118000FEB53D2000F0D0FA04463E2000F0CCFA37
:1011900007462402E019FFF776F805460022054BC2
:1011A000FFF706FD044A054B01910090FFF700FD93
:1011B00003B0F0BD0000203F1F85EB51B89E2340D7
:1011C000F0B585B0452000F0AFFA0446462000F0A7
:1011D000ABFA07462402E019FFF755F8054600224E
:1011E000084BFFF7E5FC084A084B01910090FFF718
:1011F000DFFC0022064B03910290FFF7D9FC05B0FB
:10120000F0BD00000040AF3F399D52A246DF913F44
:1012100000003940FEB53F2000F086FA0446402029
:1012200000F082FA07462402E019FFF72CF8054681
:101230000022054BFFF7BCFC044A054B01910090CE
:10124000FFF7B6FC03B0F0BD0000203F1F85EB5157
:10125000B89E2340F0B585B0472000F065FA0446FB
:10126000482000F061FA07462402E019FFF70BF866
:1012700005460022084BFFF79BFC084A084B0191EA
:101280000090FFF795FC0022064B03910290FFF7B8
:101290008FFC05B0F0BD00000040AF3F399D52A269
:1012A00046DF913F00003940F8B504464F1EC800A4
:1012B0000838211815461E46086849683A4606232C
:1012C0009A4310D02A463346FFF772FC3A46D200C2
:1012D000083AA3181A687F1E5B68FFF715FA062202
:1012E0003B469343EED1022F23D0042F11D0062F7B
:1012F0002FD12A463346FFF75BFCE36AA26AFFF769
:1013000003FA2A463346FFF753FC636A226AFFF763
:10131000FBF92A463346FFF74BFCE369A269FFF766
:10132000F3F92A463346FFF743FC63692269FFF766
:10133000EBF92A463346FFF73BFCE368A268FFF768
:10134000E3F92A463346FFF733FC63682268FFF768
:10135000DBF9F8BD10B50122FEF7ACFF10BD10B5EA
:10136000FFF7D2F910BD0000034A10B500201107A5
:10137000FEF7A0FF10BD000001FDFFFF10B500F05B
:10138000CBF910BDF0B589B004460D464800069172
:1013900072494008884215DB7149884203DC884263
:1013A00007D1002C05D020462946FFF7D3FF09B00E
:1013B000F0BD6C48002D02DD6B4909B0F0BD6B49F2
:1013C00009B0F0BD6A49884211DA6A4988420BDAED
:1013D00020462946FEF7FCFF042801D1FFF7C4FF91
:1013E0002046294609B0F0BD0026F6435DE06D00B9
:1013F00061496D08884232DA6049884219DA00266C
:10140000012332469B0720462946FFF77DF9074610
:101410000191012220462946FEF74CFF0022584B3D
:10142000FFF77FF93A46019BFFF79EF904460D4608
:101430003BE001260022524B20462946FFF764F983
:101440000746009100224E4B20462946FFF769F9D6
:101450003A46009BFFF788F904460D4625E04949C6
:10146000884219DA02260022474B20462946FFF718
:101470009FFB0022424BFFF747F9074602910022EB
:10148000414B20462946FFF74CF93A46029BFFF7AD
:101490006BF904460D4608E0032622462B46002041
:1014A0003A49FFF761F904460D4622462B4610469D
:1014B0001946FFF77DFB07460B4602460191FFF7F1
:1014C00077FB0246029032480B460391062178448E
:1014D000FFF7EAFE3A46019BFFF76AFB00902D48B2
:1014E000019105217844039B029AFFF7DDFE039BDF
:1014F000029AFFF75DFB02460B4601990098002E09
:101500000BDAFFF701F922462B46FFF751FB224683
:101510002B46FFF711F909B0F0BDFFF7F5F82246A9
:101520002B46FFF745FB1C4AF6007A4493191A68CC
:101530005B68FFF7F6F822462B46FFF7F2F8174AEA
:101540007A4493191A685B68FFF7F6F8069A002A3E
:10155000E1DA0122D207514009B0F0BD0000104489
:101560000000F07F182D4454FB21F93FFB21F9BF07
:101570000000DC3F0000203E0000F33F0000E63F9B
:101580000000F03F008003400000F83F0000F0BF83
:101590003E0A0000000A00009A09000064090000E9
:1015A000F0B51FB4039B54425D00164626439C468B
:1015B000F40F6D084B004E4E5B082C438E46B44230
:1015C00005D847420743FC0F1C43B44204D9634685
:1015D000FFF7C5FE05B0F0BD464E6644164309D080
:1015E000CC0F6646B61702273E40264304461C43EE
:1015F00004D00BE0FFF7C6FE05B0F0BD002EFBD017
:10160000012EF9D0022E32D0032E34D014462C43B2
:101610000BD0374CA54216D1A3420AD1012189072C
:101620008D438B43194603950DE0704600280FDB70
:1016300025E0314F7F44002E0ED0012E10D0022E17
:1016400015D0032E17D0A3421DD17046002816DAFC
:101650002A482B4905B0F0BD7968386805B0F0BD5F
:1016600001227968D2073868514005B0F0BD23489F
:10167000244905B0F0BD2148234905B0F0BD1F48FD
:10168000224905B0F0BD5B1B1B153C2B02DD1B483E
:101690001E490FE06446002C05DA3C24E34202DADE
:1016A0000020014606E0039BFFF75EF84900490869
:1016B000FFF768FE002EE4D0012E0BD0144A154B24
:1016C000022E0CD0FFF72DF80C4A0E4BFFF729F82D
:1016D00005B0F0BD0122D207514005B0F0BDFFF7C3
:1016E00020F8064A074BFFF727F805B0F0BD0000C9
:1016F0000000F07F000010C008090000182D4454BD
:10170000FB21F9BFFB210940FB2109C0FB21F93F67
:10171000075C143326A6A13C10B5024800F044F83B
:1017200010BD00000060064070B504461D4800F082
:1017300080F8D0211B48FEF761FE1A4800F08BF8B4
:10174000184800F04BF821461648FEF757FE15489A
:1017500000F081F8134800F041F8124800F050F80A
:10176000D1211048FEF74AFE0E4800F074F80D48EB
:1017700000F034F80B4800F04DF80A4800F038F853
:10178000084800F03AF80546064800F064F80548B5
:1017900000F058F8034800F030F8054600F0DAF899
:1017A000284670BD006006400A49496B402211433B
:1017B000084A51631146896BD2141143054A91635B
:1017C0005115054A116251621421417080218170C6
:1017D000704700000080044000B004400146C87813
:1017E000C007C00F002801D1012070470020FCE78E
:1017F000817808221143817070470146087970474B
:10180000817804221143817070478178202211432E
:101810008170704781781022914381707047817880
:10182000202291438170704781781022114381708A
:10183000704700B503461846FFF7E7FF1846FFF765
:10184000F3FF00BD00B503461846FFF7E8FF184652
:10185000FFF7E0FF00BD00BFC17802221140002960
:10186000FAD0C1781143C17070470000FFB583B052
:1018700004460E461D460C9F2670656027810D9814
:10188000E0600E982074012007210346084A009169
:1018900001900146059800F0C5F90E9800902822A5
:1018A000394628460D9B00F073F807B0F0BD0000E4
:1018B000FF0F000096B0002023490090234B1A46EA
:1018C00001910290014610A8FFF7D0FF01201E49A8
:1018D00000901E4B1A460191029000210AA8FFF7C2
:1018E000C5FF1E201849C0310322194B00920191F7
:1018F00002901A46012104A8FFF7B8FF10A800F0D3
:10190000E5F90AA800F0E2F904A800F0DFF90A20DE
:1019100000F062FAFFF732FD052000F05DFA11E0F9
:10192000FFF7EAFA00F01CF80446002201239B07A7
:10193000FEF71AFF0646FEF72BFC0146039010A89F
:1019400000F0DAF9ECE7000040F00F4000900340AF
:1019500000800340002000E0401C2828FCDB70478A
:10196000F0B587B0FFF7E2FB01910090FFF728FC8C
:1019700003910290FFF76EFC05910490049C2246AF
:10198000009E3046059B0199FFF70AFE07B0F0BDA7
:10199000F0B50546059C9448854278D1934883422A
:1019A00019D1022901DD052913D1032C01DA052CF7
:1019B0000DDC8F48806B0126760230438C4EB0637D
:1019C00003200002A6008B4FF619306000E10020D2
:1019D000F0BD0020FCE78548803083421BD10529FB
:1019E00017DC012C05DA042C03DD082C01D0092CAE
:1019F0000DD17F48806B0126F60230437C4EB063E8
:101A000003200002A6007C4FF6193060E0E00020C1
:101A1000DEE70020DCE77548C030834215D1052998
:101A200011DC052C0DDC7248806B01263603304337
:101A30006F4EB06303200002A600704FF6193060AD
:101A4000C6E00020C4E70020C2E76D4883421CD1F5
:101A5000042918DC182C05DA192C03DD1D2C01DAF9
:101A60001F2C0EDC6248806B012676033043604EEB
:101A7000B06303200002A600624FF6193060A7E0B1
:101A800005E00020A4E70020A2E70020A0E75E48D0
:101A9000854248D1012944DC5448834213D10C2C9F
:101AA00001DA0D2C0DDC5248806B012676023043A2
:101AB0004F4EB06303200002A6004E4FF61930606F
:101AC00086E0002084E749484030834210D1012C51
:101AD0000CDC4748806B1E153043454EB063032035
:101AE0000002A600494FF619306071E000206FE750
:101AF0004348834213D1142C01DA152C0DDC3C48E9
:101B0000806B012676033043394EB0630320000218
:101B1000A6003C4FF61930605AE0002058E700203C
:101B200056E7002054E73A4885424FD101294BDC63
:101B30002E48834213D1012C01DA022C0DDC2C48F3
:101B4000806B012676023043294EB06303200002E9
:101B5000A600284FF61930603AE0002038E7234805
:101B60004030834217D1022C05DA032C03DD122CFE
:101B700001DA132C0DDA1E48806B0126B6023043C1
:101B80001B4EB06303200002A600204FF619306000
:101B90001EE000201CE71A48834213D1162C01DAFC
:101BA000172C0DDC1248806B012676033043104E53
:101BB000B06303200002A600124FF619306007E060
:101BC000002005E7002003E7002001E70020FFE6F2
:101BD000CE0028460C3080591043CE002F460C37DB
:101BE000B8510120F4E600000080034000F00F40EF
:101BF000008004400090044000B0044000C0044055
:101C000000F10F4000D004400090034000A00440C9
:101C100000A0034010B5CC0003460C33E3185A6013
:101C200010BD0000F0B50446069D2448844207D14B
:101C30002348C06B012636063043214EF06317E07F
:101C40002048844207D11E48C06B012676063043E7
:101C50001B4EF0630CE01C48844207D11848C06B4F
:101C60000126B6063043164EF06301E00020F0BDB9
:101C7000134840680E0603273F063E403043104E8F
:101C80007060A260D80018263040059E7607760F57
:101C90003043266830432060012D04D1206820267F
:101CA0003043206008E0002D04D120682026B04396
:101CB000206001E00020DAE70120D8E7008003403F
:101CC000008004400090034000A0034010B504468B
:101CD0002078002805D12189FA226068FFF79AFF51
:101CE00007E02078012804D12189E6226068FFF707
:101CF00091FF0020A08210BDF0B585B004460F46CC
:101D00002078002814D1A18AC819FEF7BCFA05462C
:101D1000184A194BFEF74CFF184A194B01910090D5
:101D2000FEF7F2FC03910290FEF768FA608216E07B
:101D30002078012813D1A18AC819FEF7A4FA054614
:101D4000104A114BFEF734FF0022104B0191009016
:101D5000FEF7DAFC03910290FEF750FA608200BFB2
:101D6000A08AC019A082628A21896068FFF752FFA9
:101D700005B0F0BD3E86408EE338FA3FAF624C5569
:101D800055257040F91802398EE3F83F00C06C40C9
:101D9000F8B506460C46FFF72FF8051E0F4600D093
:101DA0000120014349000B484908411AC90F0DD0D1
:101DB000002E01D0012100E000210C436100490800
:101DC000401AC00F02D10120FEF76DFA28463946AD
:101DD000F8BD00000000F07F1049896B012211431B
:101DE0000E4A916300210E4A116011468860052158
:101DF00051601146096801221143094A116000BF70
:101E000007490968802211400029F9D0044909686E
:101E100049084900024A11607047000000800440F0
:101E20000000044080807F7E7D7C7B7A79787776A5
:101E300076757473727171706F6E6E6D6C6C6B6AA7
:101E40006A69686867666665646463636261616045
:101E5000605F5F5E5E5D5D5C5C5B5B5A5A595958C2
:101E6000585757565655555554545353525252512C
:101E7000515050504F4F4F4E4E4D4D4D4C4C4C4B82
:101E80004B4B4A4A4A4949494848484747474746C9
:101E90004646454545444444444343434342424205
:101EA00042414141000000004FBB610567ACDD3F8E
:101EB000182D4454FB21E93F9BF681D20B73EF3F71
:101EC000182D4454FB21F93FE2652F227F2B7A3CE9
:101ED000075C143326A6813CBDCBF07A8807703CA2
:101EE000075C143326A6913CC4EB98999999C9BF15
:101EF000711623FEC671BCBF6D9A74AFF2B0B3BF4A
:101F00009AFDDE522DDEADBF2F6C6A2C44B4A2BF09
:101F10000D5555555555D53FFF8300922449C23F75
:101F20006E204CC5CD45B73F513DD0A0660DB13FA9
:101F3000EB0D76244B7BA93F11DA22E33AAD903FBB
:101F40000000000000000000581F000000F0FF1F0C
:081F500078010000040100000B
:0400000500000149AD
:00000001FF
