:020000040000FA
:1000000010F2FF1F65010000710100007301000084
:1000100000000000000000000000000000000000E0
:10002000000000000000000000000000750100005A
:1000300000000000000000007701000079010000CE
:100040007B0100007B0100007B0100007B010000C0
:100050007B0100007B0100007B0100007B010000B0
:100060007B0100007B0100007B0100007B010000A0
:100070007B0100007B0100007B0100007B01000090
:100080007B0100007B0100007B0100007B01000080
:100090007B0100007B0100007B0100007B01000070
:1000A0007B0100007B0100007B0100007B01000060
:1000B0007B0100007B0100007B0100007B01000050
:1000C00000F002F800F03EF80CA030C80838241800
:1000D0002D18A246671EAB4654465D46AC4201D180
:1000E00000F030F87E460F3E0FCCB6460126334274
:1000F00000D0FB1AA246AB463343184764220000E7
:1001000084220000103A02D378C878C1FAD8520786
:1001100001D330C830C101D504680C6070470000BD
:100120000023002400250026103A01D378C1FBD813
:10013000520700D330C100D50B6070471FB51FBDFB
:1001400010B510BD00F08AFF1146FFF7F7FF01F070
:100150000FFC00F045F903B4FFF7F2FF03BC00F019
:1001600047F9000072B60948804762B60848004760
:10017000FEE7FEE7FEE7FEE7FEE706480047000071
:1001800005480649044A064B704700009D100000D0
:10019000C10000007B01000010F1FF1F10F2FF1FE3
:1001A00010F1FF1F002203098B422CD3030A8B425C
:1001B00011D300239C464EE003460B433CD400225F
:1001C00043088B4231D303098B421CD3030A8B4271
:1001D00001D394463FE0C3098B4201D3CB01C01A3F
:1001E000524183098B4201D38B01C01A524143090A
:1001F0008B4201D34B01C01A524103098B4201D3F8
:100200000B01C01A5241C3088B4201D3CB00C01A64
:10021000524183088B4201D38B00C01A52414308DC
:100220008B4201D34B00C01A5241411A00D2014601
:100230005241104670475DE0CA0F00D0494203109A
:1002400000D34042534000229C4603098B422DD3E9
:10025000030A8B4212D3FC22890112BA030A8B4291
:100260000CD3890192118B4208D3890192118B42E0
:1002700004D389013AD0921100E08909C3098B4265
:1002800001D3CB01C01A524183098B4201D38B01A8
:10029000C01A524143098B4201D34B01C01A52414B
:1002A00003098B4201D30B01C01A5241C3088B4290
:1002B00001D3CB00C01A524183088B4201D38B007B
:1002C000C01A5241D9D243088B4201D34B00C01A05
:1002D0005241411A00D20146634652415B1010461A
:1002E00001D34042002B00D54942704763465B1062
:1002F00000D3404201B50020C046C04602BD704751
:100300007047704730B50346CA02400D1043164D82
:10031000164C0A1502D02043002A06DBAA1A002A2E
:1003200012DDD040FF2A0BDC30BD5205520D01D149
:1003300040004008AA1A07D4D0404042FF2A01DDFD
:10034000002030BD0028FCDD4A00002B01D0012038
:1003500000E00020101801225205D042F0D8C81742
:10036000C043604030BD00001E040000000000805B
:100370000346CA02400D10B510430A1504D00124EB
:10038000E4072043002A05DB0A4CA21A04D4D0401B
:10039000FF2A00DD002010BD4A00002B01D0012003
:1003A00000E00020101801225205D042F2D8C817F0
:1003B000C04310BD1E04000010B500F009F800682D
:1003C00010BD10B5044600F003F8046010BD000035
:1003D00000487047ACF0FF1F00487047ACF0FF1FAB
:1003E00010B50446C046C0462046FFF7B4FE10BD17
:1003F00001491820ABBEFEE726000200704700004E
:10040000FFFFFFFFFFFFFFFFFFFFFFFFFEFFFFFFFD
:10041000F0B50C46871A9C410D46861A9D4103D2C1
:10042000C01BA141D21963410D0D1F0DC94EEC1B1C
:10043000AE435CD07F057F0D0026002F51D02D05E7
:10044000AC46A943DD020123ED0A1B051D43202311
:100450001B1B24D41746E740381871412F46E7404C
:10046000CC199D402818314661410C0D27D16144BB
:100470009A4013D50023401C594152000ED1400828
:10048000400001224B005205D34207D3052040070C
:10049000C14201D5B04900E0B0493046F0BD6B0023
:1004A000002A00D001229A181F23203C1B1B01D5D3
:1004B000002302E0E540281871410C0DD7D001243B
:1004C00024050919C407CD0740084908E40F28434B
:1004D0006144002CD5D00024401C61419A40D0D109
:1004E000CDE76A05520DD9D1C90FC907D5E79C4D93
:1004F0004E00002801D0012400E0002434195F00E0
:10050000002A01D0012600E00026BE19954FAC421A
:100510000CD8AE420AD8B44206D001256D05EC4293
:10052000BCD010461946F0BD9942FCD00020394697
:10053000F0BDF0B51FB40C460F46811A9F41254609
:10054000861A9D4106D20125ED076F40401ABC4135
:1005500052187B41210D1E0D8D1BAC467D4D8D43E8
:100560007ED075056D0D7CD00D05AE46AC431B03EA
:100570001B0B794D52429D41202366469B1B14D391
:100580001746F740381800260090744160462F4601
:100590000741E41900989D402818664116D4714619
:1005A00071189A4025D5012320E093182A466A4104
:1005B0005200002B00D0521C1E23203E9B1B002B00
:1005C00061DD3541EE1728186641E8D500187641FF
:1005D0005B1C9A4000D3401C4B05F3181524E340E4
:1005E00010D3002B52D071467118D30FC01802D30C
:1005F000491C05B0F0BD0123DB079A42F9D1400840
:100600004000F6E701225205B21801D1002853D06C
:100610000123CC0ADB029943891E002A08D1020C6F
:1006200003D0020C0004103902E0024600202039F9
:100630000023550B05D112020823550B01D152019D
:100640000D23550C01D112011B1DD50C01D19200B7
:100650009B1C150D01D152005B1C2025EE1A01E0F8
:100660002CE022E00546F54015439840CA1AE10700
:1006700069181305C918002ABBDA032040070818B7
:10068000C10FC9070FE071466118B2E7F1074008D2
:100690000843711071444A000CD001235B059A4253
:1006A000A7D2C90FC9070020A3E74905490D26D1E4
:1006B000002001E00028F4D100219AE7284D6600CF
:1006C000002801D0012100E0002171185F00002AFC
:1006D00001D0012600E00026BE19224FA94210D801
:1006E000AE420ED8B14208D001256D05E94206D0D0
:1006F0001946A802414010467BE79C4201D02146A2
:1007000077E70020394674E710B50C465C4005D504
:100710000124E4076340FFF70CFF10BDFFF778FEEC
:1007200010BD30B40C465C4004D50124E40763409E
:1007300030BC6DE630BCFCE670B50124E4076140D6
:100740000D465D4002D4FFF763FE70BD6340FFF7C6
:10075000F0FE70BDFF0700000000F0FF0000F07F1A
:100760000000E0FF0000F87FF0B5F94D0C091E090C
:100770002C402E402F468BB0A7437DD0B543FCD0F4
:10078000002E7AD0002CFCD00D465D40ED0F2543A5
:10079000AC1BFF25AD0464190894C502440DC902C1
:1007A0002143500DDC0204430120C00701430443F0
:1007B000D2020191200C110C00958C4601042346B5
:1007C0008B430A9161460904E24D8A430991010A6B
:1007D0007D4449198039097805464D4301266D1835
:1007E000F605751B6943C90C640B891C4C436418DE
:1007F000B5012C1B250C2E04B4434C434D43210C56
:10080000691889090591009DE90701D00121C907EF
:1008100004912C4601996708CD072F434C08059D8C
:10082000E10B4D432D0C29466646754302950D4656
:1008300045432E46029D7D1BB44100950D465D4308
:1008400001942C0C2F040D465543AE462D0C3D4310
:10085000029503947546049C2D04641B049406D2EF
:10086000029C039D641C002675410395029401AC13
:1008700070CC009F7D1B01E03EE162E1B4410904C0
:100880000095079101940599A4086143090C0C4651
:100890004443650BE7040C4666467443A646640B66
:1008A0003C43039502947446049DE4042C1B049479
:1008B00006D2029C039D641C002675410395029498
:1008C00001AC70CC009F7D1BB44101940C465C438D
:1008D0000095650FE7000C465443A646640F3C4361
:1008E000039502947446049DE4002C1B049406D2E4
:1008F000029C039D641C002675410395029401AC83
:1009000070CC009F7D1BB441AE09AF06049DC900A9
:10091000AD092F43049DA406AD060495079D3443FD
:1009200069180791059DE10B4D432D0C294666463C
:10093000754302950D4645432E46029D7D1BB441ED
:1009400000950D465D4301942C0C2F040D46554334
:10095000AE462D0C3D43029503947546049C2D0430
:10096000641B049406D2029C039D641C00267541FE
:100970000395029401AC70CC009F7D1BB44101949F
:100980008C050694079C890A611800950791019CC3
:100990000599A4086143090C0D464543680BEF0413
:1009A0000D46644665436C0B3C43049FED047D1B80
:1009B000AC4602D20025641C6841009E019D371B95
:1009C00085410846584301950C46460FC5005443DF
:1009D000600F28436546E4002C1B02D20025401C12
:1009E0006E41019D3F1AB5412846BD098006284346
:1009F0008446A009BF064E020699A406761807434E
:100A0000079D002068410A99079019430020099B1F
:100A100000906046FF1913434041E20F64003A43DF
:100A2000A4460446D71A8C41A04203D90120009065
:100A300020463A46C70F941840416246D20F2243DF
:100A4000644664000494009CBE466400D71AA44621
:100A5000044602978C417746002F01D1A04204D969
:100A60006046401C8446029A2046C40FA64694184D
:100A70004041049A0546D20F224364466400D31ACB
:100A80008D417146002901D1A84202D928461A4653
:100A9000641C10430122002800D01643610200208C
:100AA000079B891904465C410223002C02DB49188C
:100AB00013466441089DCE0A2D145D194B05670548
:100AC000E10A2C050D1908993E43C9076940002B1E
:100AD00008D0934006D30022761C5141002B01D14F
:100AE000760876001C4A002D43DB154241D0AA430C
:100AF0003FD030460BB0F0BD06180D464D41174CA7
:100B00007642AC411AD395181C465C41134A6D429B
:100B1000A24113D3012252054C00D4420AD15C00F9
:100B2000D4420BD04B4002D592021143E2E7490078
:100B30004908DFE75940C90FC90718E000200849F4
:100B4000D8E7054801420DD10342F7D0F2E7000093
:100B50000000FF07BA1A00000000F07F0000E0FF6D
:100B60000000F87F114859400143C0124140002065
:100B7000C0E70123089A9B069A4205DC032252072C
:100B80008918C90FC907B5E7052252078918074A0E
:100B90001143D2125140ADE770B515461C460246CE
:100BA0000B4628462146FFF7DFFD70BDFFFFFF7FA4
:100BB0001F22030C02D10F22000402D0030E03D027
:100BC00004E00020014670470002083A030F01D1FB
:100BD0000001121F830F01D18000921E002801DB4B
:100BE0004000521E120551184205C012411810460D
:100BF0007047C10FC90700D040420122920711433C
:100C0000D6E701218907D3E7F0B58B4C0F092546BC
:100C100089B0BD437BD01D092646AE43FAD00E46AF
:100C20005E402740F60F3E43254071D0240121420B
:100C3000FBD0FF24AD19A4042D1B039501252D0520
:100C4000DB02DB0AC9022B43C90A29431E01090141
:100C5000040F130F050121431701880B82039143F1
:100C60002D098C46A90B1E438A039543B30B9A03A7
:100C700096433F09BA0B9403A74302962E467E4340
:100C80000497B6464E19D7190C460196544305975A
:100C90007E43371B7646BF1B3601B646BE0B361960
:100CA00000967646BC043719009C01D3641C00945E
:100CB0006400002F01D001263443029E049F754337
:100CC00066467E430496760034196E00341900940B
:100CD000029C019E1C196643751BAE460694654630
:100CE0004519059C05956C43594375460891691A49
:100CF0000191049E01465143A41B0491611A009C7A
:100D00000791E10605D061090122114302E072E07A
:100D10006EE06109089D00272C0A2D066918049DC4
:100D20007C412A0A2D066918019D6241AC0DAD0275
:100D30006D185441079A910D920255196141029A1A
:100D4000644658435443069B059A5A43121A131B90
:100D50009A0E9B015B187A41010B0005C3185141A3
:100D6000220A200644195A419A4200D2491C012005
:100D70004002814203D315230226F64302E01423E6
:100D80000326F6432020C51AA9401746AF40DA4093
:100D90000A4320460399D8400914731819055118BD
:100DA000039A3843D2075140AC4009D00122944005
:100DB00006D30022401C5141002C01D140084000C4
:100DC0001E4A934212D3012203989206904207DBF7
:100DD0000520400709181A480143C012414004E0A9
:100DE000032040070818C10FC907002009B0F0BD53
:100DF0000020F107FAE705180C464C4111486D42F6
:100E0000A04115D394181A465A410E4864429041A5
:100E10000ED301204A004005824209D35A00824283
:100E200006D35940C90F084AC90700201143DDE71E
:100E300000200649DAE700000000FF07FE07000077
:100E4000FFFFFF7F0000E0FF0000F07F0000F87F61
:100E500010B501469E240002CA15A307002A02D03D
:100E60001843002A04DBA21A002A0CDDD04010BD72
:100E70001206120E01D140004008A21A03D4D0403D
:100E800040420028F3DDFF2248001206904201D9BB
:100E9000002010BDC817C043584010BD1F22030CCE
:100EA00002D10F2200041CD0030E01D10002083A27
:100EB000030F01D10001121F830F01D18000921E88
:100EC000002801DB4000521ED205511802125118B1
:100ED0001922904004D3491C002801D14908490037
:100EE00008467047C10FC90700D04042012292074F
:100EF0001143D3E701218907D0E7000070B505460B
:100F00004800440D124B0020002C0AD0634008D04A
:100F10009A4206DA6642B24203DD12054019514197
:100F200070BD002C08D0002B09D0C90FC907002ABA
:100F3000F6DB084A114370BDC90FC90770BD2846CA
:100F40000A03104302D00020034970BD284670BD3B
:100F5000FF0700000000F07F0000F87FF0B53D4B78
:100F600002460C461C400020002C63D03A4D8B43B7
:100F700066D000296BDB0B0D1D05A94301252D054E
:100F800029430124FD33E34001D392184941FF3343
:100F900081339C468B02940D0121234389074C42E7
:100FA000920200271B198C105D1A04D42D1B02D449
:100FB0002B466500491992185B416408F4D15C1A0C
:100FC00008D40125ED07EE175519744102D42A46BD
:100FD0002346491C94185B41012292071D46E61BDB
:100FE0008D4106D4B61A854103D42B4655003446AC
:100FF0007F1924195B415208802AEFD1234300D086
:10100000022338460A22D04001D3012213438A0525
:1010100010436246890A12058918002B09D0012263
:10102000D34002D30022401C5141002B01D1400883
:101030004000F0BD0B03134307D0C90FC907F0BD33
:101040000803104303D1002901DB1046F0BD002046
:101050002946F0BD0000F07F0000F87F7546FFF7DD
:10106000BBF9AE46050069465346C008C000854638
:1010700018B020B5FFF784F860BC00274908B646D1
:101080000026C0C5C0C5C0C5C0C5C0C5C0C5C0C597
:10109000C0C5403D49008D46704700000020014911
:1010A000086070470081044030B47446641E25789F
:1010B000641CAB4204D3635D5B00E31830BC18478B
:1010C0001D46F8E74900CA020243100000D0042080
:1010D0004A0D01D001221043044A490D914201D129
:1010E00002210843012800D105207047FF070000B6
:1010F000F8B504464F1EC8000838211815461E468C
:10110000086849683A4606239A4310D02A4633466F
:10111000FFF77AFD3A46D200083AA3181A687F1EF4
:101120005B68FFF7F1FA06223B469343EED1022FAC
:1011300023D0042F11D0062F2FD12A463346FFF794
:1011400063FDE36AA26AFFF7DFFA2A463346FFF738
:101150005BFD636A226AFFF7D7FA2A463346FFF738
:1011600053FDE369A269FFF7CFFA2A463346FFF73A
:101170004BFD63692269FFF7C7FA2A463346FFF73A
:1011800043FDE368A268FFF7BFFA2A463346FFF73C
:101190003BFD63682268FFF7B7FAF8BD10B501227E
:1011A000FFF7ACFE10BD002210B5134610461146E5
:1011B000FFF7DAFA10BD0000034A10B5002011074E
:1011C000FFF79CFE10BD000001FDFFFF10B500F011
:1011D000D1FA2A2000F0D6FA044601202043014625
:1011E0002A2000F00FFB10BD10B5002000F0CAFA55
:1011F0000007000F00287DD0012000F0C3FA000294
:1012000000B23F490880022000F0BCFA3C490022AD
:101210008A5E1043088008460021415E88103849E4
:101220000880032000F0AEFA000200B235490880C1
:10123000042000F0A7FA334900228A5E1043088098
:1012400008460021415E88102E490880052000F0E4
:1012500099FA000200B22C490880062000F092FAA8
:10126000294900228A5E1043088008460021415E19
:10127000881025490880012000F084FA000200B29D
:1012800022490880022000F07DFA204900228A5E6F
:101290001043088008460021415E08121B4908805F
:1012A000032000F06FFA000200B219490880042000
:1012B00000F068FA164900228A5E1043088008464A
:1012C0000021415E081212490880052000F05AFAF8
:1012D000000200B20F490880062000F053FA0D49C1
:1012E00000228A5E1043088008460021415E0812F1
:1012F000084900E002E0088000F00EF810BD000090
:1013000030F0FF1F32F0FF1F34F0FF1F36F0FF1FD9
:1013100038F0FF1F3AF0FF1FF0B585B0694800783C
:1013200047B26949384600F0BFFB68490860684821
:10133000007847B264492431384600F0B5FB65496E
:1013400008606548007847B25F494831384600F088
:10135000ABFB624908605D480068404305465D4854
:10136000006840430646A81900F000FE5C4908608A
:1013700058480068002805DA564800684042594934
:10138000086003E0534800685649086055490968F9
:10139000C80153490968FEF705FF5349086008462C
:1013A00000687F2801D97F2008604F480068FFF758
:1013B00028FC0191009000F0A3F803910290FEF741
:1013C000A1FF4A49086043480068002803DD084639
:1013D00000684042086041480068044644432819B8
:1013E00000F0C4FD4249086038480068002805DA6A
:1013F0003648006840423B49086003E033480068D3
:101400003849086037490968C80139490968FEF751
:10141000C9FE35490860084600687F2801D97F2049
:10142000086031480068FFF7ECFB0191009000F084
:1014300067F803910290FEF765FF2E490860234884
:101440000068002803DD0846006840420860301943
:1014500000F08CFD284908601E480068002805DA65
:101460001C48006840421F49086003E019480068B2
:101470001C4908601B490968C8011F490968FEF733
:1014800091FE19490860084600687F2801D97F202D
:10149000086015480068FFF7B4FB0191009000F068
:1014A0002FF803910290FEF72DFF144908600948B8
:1014B0000068002803DD084600684042086005B067
:1014C000F0BD000036F0FF1F40F0FF1F00F0FF1FCF
:1014D00038F0FF1F04F0FF1F3AF0FF1F08F0FF1F56
:1014E0000CF0FF1F24F0FF1F28F0FF1F18F0FF1F54
:1014F00010F0FF1F1CF0FF1F14F0FF1F20F0FF1F54
:10150000F0B504464F008E488FB07F080D460D9110
:10151000874228DB4042381820430CD08948874254
:1015200003DC874218D1002C16D020462946FFF74D
:1015300035FE0FB0F0BD844A844B20462946FFF7A4
:1015400063FB07460E46824A824B20462946FFF738
:101550005BFB3A46334649E00120FEF732FFFFF7D6
:1015600022FE0FB0F0BD7C48874243DAF9208005A7
:1015700087420BDA20462946FFF7A4FD042801D153
:10158000FFF71AFE204629460FB0F0BD22462B4633
:1015900010462946FFF738FB064602466F480F46BD
:1015A0000B4606217844FFF7A3FD32463B46FFF782
:1015B0002BFB06906A48079132463B46042178444B
:1015C000FFF796FD32463B46FFF71EFB00225C4BC1
:1015D000FFF79AF802460B4607990698FFF7C4F8FA
:1015E00022462B46FFF710FB22462B46FFF78CF8CE
:1015F0000FB0F0BD2046524C690049080022234636
:10160000FFF79AF80022D243FFF778FC054602461E
:1016100054480E460B4606217844FFF769FD2A46DA
:101620003346FFF7F1FA06904F4807912A463346B2
:1016300004217844FFF75CFD2A463346FFF7E4FABD
:1016400000222346FFF760F80591049028463146B2
:1016500000F068FC089045480C46874219DB059B62
:10166000049A07990698FFF77FF802460B46214631
:101670000898FFF7C9FA2346089AFFF745F80122B0
:10168000FFF73CFC304A314BFFF74BF8304A314B07
:101690004AE000273A460B460898FFF735F83A46E5
:1016A00023460A910E9010461946FFF7ADFA2A46D6
:1016B0003346FFF741F80A9B0E9AFFF755F80546A7
:1016C0000E46059B049A07990698FFF74DF800917E
:1016D0000490012228463146FFF710FC1A4A1B4BA2
:1016E000FFF72AF80E460546012221460898FFF723
:1016F00005FC009B049AFFF787FA2A463346FFF75A
:1017000010F805460E46012238462146FFF7F6FB43
:101710000F4C174F22463B46FFF70EF82A4633463A
:10172000FFF70AF822463B46FFF706F80D9A002A13
:1017300000DD5DE70122D20751400FB0F0BD00008F
:101740000000F03F0000F07F075C143326A6913CB8
:10175000182D4454FB21F93F0000E03F680D0000C4
:101760007E0D0000F40C00000A0D00003333EF3F43
:10177000FB21E93F10B5024800F070F810BD0000F1
:101780000060064070B504461D4800F0AEF83A21EE
:101790001B4800F0C6F81A4800F0B9F8184800F0E5
:1017A00079F82146164800F0BCF8154800F0AFF86B
:1017B000134800F06FF8124800F07EF83B21104803
:1017C00000F0AFF80E4800F0A2F80D4800F062F803
:1017D0000B4800F07BF80A4800F066F8084800F073
:1017E00068F80546064800F092F8054800F086F8CB
:1017F000034800F05EF8054600F092F9284670BDF7
:101800000060064070B504460D46134800F06DF8C0
:101810003A21114800F085F80F4800F078F80E489A
:1018200000F038F821460C4800F07BF80A4800F038
:101830006EF8094800F02EF82946074800F071F8C4
:10184000054800F064F8044800F024F8024800F06D
:1018500055F800F065F970BD006006400B49496B12
:1018600040221143094A51631146896B01225203F8
:101870001143064A916305210902054A116251622A
:101880001421417080218170704700000080044065
:1018900040D004400146C878C007C00F002801D1DD
:1018A000012070470020FCE78178082211438170F5
:1018B000704701460879704781780422114381708E
:1018C00070478178202211438170704781781022FF
:1018D00091438170704781782022914381707047D5
:1018E0008178102211438170704700B50346184675
:1018F000FFF7E7FF1846FFF7F3FF00BD00B503460B
:101900001846FFF7E8FF1846FFF7E0FF00BD00BFED
:10191000C178022211400029FAD0C1781143C17068
:101920007047017170470000FFB583B004460E4652
:101930001D460C9F2670656027810D98E0600E980B
:101940002074012007210346084A009101900146B6
:10195000059800F035FA0E9800902822394628465E
:101960000D9B00F0E3F807B0F0BD0000FF0F000092
:1019700098B0002040490090404B1A4601910290D7
:10198000014612A8FFF7D0FF01203B4900903B4BD6
:101990001A460191029000210CA8FFF7C5FF1E20F6
:1019A0003549C0310322364B0092019102901A460C
:1019B000012106A8FFF7B8FF12A800F055FA0CA8FD
:1019C00000F052FA06A800F04FFA0A2000F0E6FAFA
:1019D000E122520203212B4800F006FBFFF7F6FB41
:1019E0000A2000F0DBFAFFF7FFFB052000F0D6FA33
:1019F00025480021415E059124480021415E049163
:101A000023A1204800F036FC34E0FFF7EDFB1E492F
:101A100000228A5E0599501AFFF76CFA04461B49AA
:101A200000228A5E0499501AFFF764FA05460120E5
:101A3000C00760400746FFF70BFA0646314612A87A
:101A400000F028FA0120C00768400746FFF700FAB7
:101A5000064631460CA800F01DFA012000F09EFA5F
:101A600009480021415E074800F0FCFB0DA1054834
:101A700000F000FCC9E7000040F00F400090034078
:101A80000080034000A0064036F0FF1F38F0FF1F23
:101A900048656C6C6F2066726F6D204B4C32355A06
:101AA000200D0A000A0D0000F0B588B003460A4672
:101AB00015786D1C157015786D076D0F15701578FC
:101AC000AD00161D7351002106E08E00151DAD59A5
:101AD0008E006F46BD51491C0829F6DB00BF00246B
:101AE000002116E08D006E4676594D1CAD006F4604
:101AF0007D59AE420CDD8D006E4670594D1CAD0017
:101B000075598E00BD514D1CAD006E4670510124BB
:101B1000491C0729E6DB002CE1D1039808B0F0BD91
:101B2000002000E0401C2828FCDB7047F0B505468B
:101B3000059C9448854278D19348834219D1022963
:101B400001DD052913D1032C01DA052C0DDC8F48AA
:101B5000806B0126760230438C4EB0630320000276
:101B6000A6008B4FF619306000E10020F0BD002088
:101B7000FCE78548803083421BD1052917DC012C06
:101B800005DA042C03DD082C01D0092C0DD17F4887
:101B9000806B0126F60230437C4EB06303200002C6
:101BA000A6007C4FF6193060E0E00020DEE7002060
:101BB000DCE77548C030834215D1052911DC052CBE
:101BC0000DDC7248806B0126360330436F4EB063E4
:101BD00003200002A600704FF6193060C6E0002016
:101BE000C4E70020C2E76D4883421CD1042918DCF9
:101BF000182C05DA192C03DD1D2C01DA1F2C0EDC44
:101C00006248806B012676033043604EB063032048
:101C10000002A600624FF6193060A7E005E0002040
:101C2000A4E70020A2E70020A0E75E48854248D153
:101C3000012944DC5448834213D10C2C01DA0D2CC9
:101C40000DDC5248806B0126760230434F4EB06364
:101C500003200002A6004E4FF619306086E00020F7
:101C600084E749484030834210D1012C0CDC4748BE
:101C7000806B1E153043454EB06303200002A60062
:101C8000494FF619306071E000206FE74348834206
:101C900013D1142C01DA152C0DDC3C48806B012685
:101CA00076033043394EB06303200002A6003C4F58
:101CB000F61930605AE0002058E7002056E700206F
:101CC00054E73A4885424FD101294BDC2E488342E4
:101CD00013D1012C01DA022C0DDC2C48806B01267B
:101CE00076023043294EB06303200002A600284F3D
:101CF000F61930603AE0002038E72348403083424C
:101D000017D1022C05DA032C03DD122C01DA132C77
:101D10000DDA1E48806B0126B60230431B4EB063BD
:101D200003200002A600204FF61930601EE00020BC
:101D30001CE71A48834213D1162C01DA172C0DDC4C
:101D40001248806B012676033043104EB0630320A7
:101D50000002A600124FF619306007E0002005E7E8
:101D6000002003E7002001E70020FFE6CE00284620
:101D70000C3080591043CE002F460C37B85101204B
:101D8000F4E600000080034000F00F4000800440B3
:101D90000090044000B0044000C0044000F10F4037
:101DA00000D004400090034000A0044000A0034085
:101DB00010B5CC0003460C33E3185A6010BD000088
:101DC000F0B50446069D2448844207D12348C06BE1
:101DD000012636063043214EF06317E02048844246
:101DE00007D11E48C06B0126760630431B4EF063B8
:101DF0000CE01C48844207D11848C06B0126B60687
:101E00003043164EF06301E00020F0BD13484068F7
:101E10000E0603273F063E403043104E7060A2601E
:101E2000D80018263040059E7607760F3043266886
:101E300030432060012D04D12068202630432060EB
:101E400008E0002D04D120682026B043206001E086
:101E50000020DAE70120D8E700800340008004403A
:101E60000090034000A0034010B5044620780028ED
:101E700005D12189FA226068FFF79AFF07E02078F0
:101E8000012804D12189E6226068FFF791FF002034
:101E9000A08210BDF0B585B004460F46207800281A
:101EA00013D13846FEF7A5FE0546174A174BFEF735
:101EB000ABFE174A174B01910090FEF725FC0391EA
:101EC0000290FEF755FA608215E02078012812D1C1
:101ED0003846FEF78EFE05460F4A104BFEF794FE7D
:101EE00000220F4B01910090FEF70EFC039102902F
:101EF000FEF73EFA608200BFA782628A218960688D
:101F0000FFF756FF05B0F0BD3E86408EE338FA3F3E
:101F1000AF624C5555257040F91802398EE3F83FF1
:101F200000C06C40F8B506460C46FFF717F8051ED2
:101F30000F4600D00120014349000B484908411ACF
:101F4000C90F0DD0002E01D0012100E000210C436B
:101F500061004908401AC00F02D10120FEF731FA92
:101F600028463946F8BD00000000F07FF8B5064667
:101F700000277D24E400254600BF25462146304643
:101F8000FEF710F9001944083846791CCFB207282B
:101F900001DAA542F1D12046F8BD00001049896B55
:101FA000012211430E4A916300210E4A116011462D
:101FB0008860052151601146096801221143094AD0
:101FC000116000BF07490968802211400029F9D03B
:101FD0000449096849084900024A11607047000035
:101FE0000080044000000440FEB504460F4616463B
:101FF0009248844269D19248406B21150843904928
:102000004863084640680321890688438C49486034
:1020100008464068012189060843894948603146DD
:1020200088480068FEF7BEF880B20090C017010F24
:102030000098081805113B00FFF736F80504101D3D
:102040002A3744007E48806B0121490208437C49BD
:10205000886348157C494860886035E07848806B23
:10206000012149020843764988630D2080017649A1
:102070008863C86328E07248806B012189020843A5
:102080006F498863032000027049086048601BE0C4
:102090006B48806B012109030843694988630D205F
:1020A00080016B498861C8610EE06548806B012141
:1020B0004903084362498863032000026549886137
:1020C000C86101E00020FEBDA0E0634884424BD11E
:1020D0005B48406BE114084359494863E1204002E2
:1020E000864209D157490968C8093146FEF75AF8AE
:1020F0004221484385B205E0710152480068FEF76D
:1021000051F885B2002F04D0012F10D0022F28D112
:102110001AE04B48806B0121490208434849886313
:1021200003200002484940318860C8601BE04448F1
:10213000806B0121C90208434149886303200002E2
:102140004649C86008610EE03D48806B01214903A3
:1021500008433B498863032000023E490860486009
:1021600001E00020AFE751E03D4884424CD13448C3
:10217000406B01210903084331494863E1204002D3
:10218000864209D12F490968C8093146FEF70AF885
:102190004221484385B205E071012A480068FEF7F4
:1021A00001F885B2002F04D0012F0FD0022F28D1C3
:1021B00019E02348806B0121090308432049886303
:1021C0000320000222498860C8601CE01C48806B24
:1021D0000121090308431A498863032000021C49AE
:1021E000086148610FE01648806B012149030843EC
:1021F0001349886303200002164940318861C86191
:1022000001E000205FE701E000205CE7E0780C21BE
:102210008843E0700020A0702078410949010191B5
:102220001F200002284000120199084320706570A9
:10223000E0780C210843E070012044E700A006404C
:10224000008004403CF0FF1F0090044040A0044088
:1022500000C0044000D0044000B0064000B004407C
:1022600000C0064000BF027980231A40802AFAD1BC
:10227000C171704730B505460C4604E02178284608
:10228000FFF7F0FF641C20780028F7D130BD808074
:102290007F7E7D7C7B7A79787776767574737271C0
:1022A00071706F6E6E6D6C6C6B6A6A696868676678
:1022B00066656464636362616160605F5F5E5E5D0A
:1022C0005D5C5C5B5B5A5A5959585857575656557E
:1022D00055555454535352525251515050504F4FE0
:1022E0004F4E4E4D4D4D4C4C4C4B4B4B4A4A4A4930
:1022F0004949484848474747474646464545454473
:10230000444444434343434242424241414100002A
:10231000555555555555C53F7D6FEB0312D6D4BF66
:102320005544880E55C1C93F3B8F68B52882A4BF6C
:1023300088B20175E0EF493F09F7FD0DE13D023F2D
:102340004B2D8A1C273A03C0C88A599CE52A0040B5
:1023500059018D1B6C06E6BF82922EB1C5B8B33F02
:102360008023000000F0FF1F400000000401000077
:10237000C023000040F0FF1FD0010000200100003A
:10238000000000000000000000000000000000004D
:10239000000000000000000000000000000000003D
:1023A000000000000000000000000000000000002D
:1023B00000000000000000000000000000004001DC
:040000050000016591
:00000001FF
